:0600000000F012EF00F019
:10000800F6CF04F0F7CF05F0F8CF06F0AAEF00F02E
:10001800E0CF01F0F29C01C0E0FF100010EF01F00A
:1001000000010406090B0E101215171A1C1E2123DC
:1001100025282A2C2E31333537393D3D404244467F
:10012000484A4C4E5052535557595B5D5E6061636F
:10013000656667696A6C6D6E6F71727374757677D8
:100140007878797A7A7B7C7C7D7D7E7E7E7E7F7FEF
:100150007F7F0000F5CF07F09E928A90BDBE02D04F
:10016000BD8E01D0BD9E0EB217D0BDBE09D00D50C0
:10017000010F026E02C0F6FF0800F550800F0AD092
:100180000D50010F026E02C0F6FF0800F5CF03F01C
:1001900003508008BE6E03D0BDBEE9D7F1D7BDBE07
:1001A0000FD00EB007D00D2A500E0D6409D00E2AC4
:1001B0000D6E06D00D06500E0D6402D00E2A0D6A8B
:1001C00007C0F5FF06C0F8FF05C0F7FF04C0F6FF43
:1001D00011000400D36A700ED3120D6A0E6A010E6C
:1001E0008A6E320E936ECB68CA6ACA84BD50F00B19
:1001F0000C09BD6ECF0EBD16BD503F0B4009BD6E44
:10020000D08E9F6AA26A9F829E6AA16A9E929D6A10
:10021000A06A9D82F26AF16AF06AF28E0400FED74B
:100220000E6A0D6A000EF86E010EF76E0001E9EF1E
:0202300000F0DC
:020000040020DA
:08000000FFFFFFFFFFFFFFFF00
:020000040030CA
:0E000000FF060B1FFF0080FF03C003E003405C
:00000001FF
