:0600000000F012EF00F019
:10000800F6CF07F0F7CF08F0F8CF09F0A2EF00F02D
:10001800E0CF01F0F29C01C0E0FF10000EEF01F00C
:10010000000204080B0E1114171A1D1F2125272B9E
:100110002E303336383B3E404345484A4D4F5153CD
:1001200056585A5C5E6062646667696B6C6E6F718C
:10013000727475767778797A7B7C7C7D7D7E7E7E25
:100140007F7F0000F5CF0AF09E928A9011B212D004
:100150001050010F026E02C0F6FF0800F550036E4A
:10016000046A800E0326000E042204340430066E56
:10017000033011D0800E026E036A1050010F046E1E
:1001800004C0F6FF0800F550025E000E035A033467
:100190000330066E0230056E0550BE6E11B007D0FA
:1001A000102A400E106409D0112A106E06D01006D5
:1001B000400E106402D0112A106A0AC0F5FF09C06F
:1001C000F8FF08C0F7FF07C0F6FF11000400D36A6C
:1001D000700ED312106A116A010E8A6E320E936E7F
:1001E0007F0ECB6ECA6ACA84BD50F00B0C09BD6E7F
:1001F000CF0EBD16BD503F0B8009BD6ED08E9F6ADD
:10020000A26A9F829E6AA16A9E929D6AA06A9D824E
:10021000F26AF16AF06AF28E0400FED7116A106A7F
:0E022000000EF86E010EF76E0001E6EF00F022
:020000040020DA
:08000000FFFFFFFFFFFFFFFF00
:020000040030CA
:0E000000FF090B1FFF0080FF03C003E0034059
:00000001FF
